{
  "address": "0xc662BAf1737c6C5034F9DDDc0EDD5446Cf3dC89a",
  "abi": [
    {
      "anonymous": false,
      "inputs": [
        {
          "indexed": true,
          "internalType": "address",
          "name": "previousOwner",
          "type": "address"
        },
        {
          "indexed": true,
          "internalType": "address",
          "name": "newOwner",
          "type": "address"
        }
      ],
      "name": "OwnershipTransferred",
      "type": "event"
    },
    {
      "anonymous": false,
      "inputs": [
        {
          "indexed": false,
          "internalType": "address",
          "name": "_token",
          "type": "address"
        }
      ],
      "name": "publishedToken",
      "type": "event"
    },
    {
      "inputs": [],
      "name": "owner",
      "outputs": [
        {
          "internalType": "address",
          "name": "",
          "type": "address"
        }
      ],
      "stateMutability": "view",
      "type": "function"
    },
    {
      "inputs": [
        {
          "internalType": "string",
          "name": "_name",
          "type": "string"
        },
        {
          "internalType": "string",
          "name": "_symbol",
          "type": "string"
        }
      ],
      "name": "publishToken",
      "outputs": [
        {
          "internalType": "address",
          "name": "tokenAddress",
          "type": "address"
        }
      ],
      "stateMutability": "nonpayable",
      "type": "function"
    },
    {
      "inputs": [],
      "name": "renounceOwnership",
      "outputs": [],
      "stateMutability": "nonpayable",
      "type": "function"
    },
    {
      "inputs": [
        {
          "internalType": "address",
          "name": "newOwner",
          "type": "address"
        }
      ],
      "name": "transferOwnership",
      "outputs": [],
      "stateMutability": "nonpayable",
      "type": "function"
    }
  ],
  "transactionHash": "0xdb082c18d253531b5a3a7cedcaaa632386633d2baa08364fcfd21f14407eff24",
  "args": [],
  "numDeployments": 1,
  "solcInputHash": "73a4d36452be024cd7a3d148b25345f8",
  "bytecode": "0x608060405234801561001057600080fd5b5061001a3361001f565b61006f565b600080546001600160a01b038381166001600160a01b0319831681178455604051919092169283917f8be0079c531659141344cd1fd0a4f28419497f9722a3daafe3b4186f6b6457e09190a35050565b6115718061007e6000396000f3fe608060405234801561001057600080fd5b506004361061004c5760003560e01c8063715018a6146100515780638da5cb5b1461005b578063b90c33b514610084578063f2fde38b14610097575b600080fd5b6100596100aa565b005b6000546001600160a01b03165b6040516001600160a01b03909116815260200160405180910390f35b6100686100923660046103b9565b610115565b6100596100a536600461041d565b6101ee565b6000546001600160a01b031633146101095760405162461bcd60e51b815260206004820181905260248201527f4f776e61626c653a2063616c6c6572206973206e6f7420746865206f776e657260448201526064015b60405180910390fd5b61011360006102b9565b565b600080838360405161012690610309565b61013192919061049a565b604051809103906000f08015801561014d573d6000803e3d6000fd5b5060405163f2fde38b60e01b81523360048201529091506001600160a01b0382169063f2fde38b90602401600060405180830381600087803b15801561019257600080fd5b505af11580156101a6573d6000803e3d6000fd5b50506040516001600160a01b03841681527feca111ad5b6f9431622cc2ad4bdcfd1856d6253228ff4dbada5a0a221ddbd2a79250602001905060405180910390a19392505050565b6000546001600160a01b031633146102485760405162461bcd60e51b815260206004820181905260248201527f4f776e61626c653a2063616c6c6572206973206e6f7420746865206f776e65726044820152606401610100565b6001600160a01b0381166102ad5760405162461bcd60e51b815260206004820152602660248201527f4f776e61626c653a206e6577206f776e657220697320746865207a65726f206160448201526564647265737360d01b6064820152608401610100565b6102b6816102b9565b50565b600080546001600160a01b038381166001600160a01b0319831681178455604051919092169283917f8be0079c531659141344cd1fd0a4f28419497f9722a3daafe3b4186f6b6457e09190a35050565b611073806104c983390190565b634e487b7160e01b600052604160045260246000fd5b600082601f83011261033d57600080fd5b813567ffffffffffffffff8082111561035857610358610316565b604051601f8301601f19908116603f0116810190828211818310171561038057610380610316565b8160405283815286602085880101111561039957600080fd5b836020870160208301376000602085830101528094505050505092915050565b600080604083850312156103cc57600080fd5b823567ffffffffffffffff808211156103e457600080fd5b6103f08683870161032c565b9350602085013591508082111561040657600080fd5b506104138582860161032c565b9150509250929050565b60006020828403121561042f57600080fd5b81356001600160a01b038116811461044657600080fd5b9392505050565b6000815180845260005b8181101561047357602081850181015186830182015201610457565b81811115610485576000602083870101525b50601f01601f19169290920160200192915050565b6040815260006104ad604083018561044d565b82810360208401526104bf818561044d565b9594505050505056fe60806040523480156200001157600080fd5b506040516200107338038062001073833981016040819052620000349162000251565b8151829082906200004d906003906020850190620000de565b50805162000063906004906020840190620000de565b505050620000806200007a6200008860201b60201c565b6200008c565b5050620002f8565b3390565b600580546001600160a01b038381166001600160a01b0319831681179093556040519116919082907f8be0079c531659141344cd1fd0a4f28419497f9722a3daafe3b4186f6b6457e090600090a35050565b828054620000ec90620002bb565b90600052602060002090601f0160209004810192826200011057600085556200015b565b82601f106200012b57805160ff19168380011785556200015b565b828001600101855582156200015b579182015b828111156200015b5782518255916020019190600101906200013e565b50620001699291506200016d565b5090565b5b808211156200016957600081556001016200016e565b634e487b7160e01b600052604160045260246000fd5b600082601f830112620001ac57600080fd5b81516001600160401b0380821115620001c957620001c962000184565b604051601f8301601f19908116603f01168101908282118183101715620001f457620001f462000184565b816040528381526020925086838588010111156200021157600080fd5b600091505b8382101562000235578582018301518183018401529082019062000216565b83821115620002475760008385830101525b9695505050505050565b600080604083850312156200026557600080fd5b82516001600160401b03808211156200027d57600080fd5b6200028b868387016200019a565b93506020850151915080821115620002a257600080fd5b50620002b1858286016200019a565b9150509250929050565b600181811c90821680620002d057607f821691505b60208210811415620002f257634e487b7160e01b600052602260045260246000fd5b50919050565b610d6b80620003086000396000f3fe608060405234801561001057600080fd5b506004361061010b5760003560e01c806370a08231116100a257806395d89b411161007157806395d89b411461021f578063a457c2d714610227578063a9059cbb1461023a578063dd62ed3e1461024d578063f2fde38b1461026057600080fd5b806370a08231146101c0578063715018a6146101e957806379cc6790146101f15780638da5cb5b1461020457600080fd5b8063313ce567116100de578063313ce56714610176578063395093511461018557806340c10f191461019857806342966c68146101ad57600080fd5b806306fdde0314610110578063095ea7b31461012e57806318160ddd1461015157806323b872dd14610163575b600080fd5b610118610273565b6040516101259190610b3b565b60405180910390f35b61014161013c366004610bac565b610305565b6040519015158152602001610125565b6002545b604051908152602001610125565b610141610171366004610bd6565b61031d565b60405160128152602001610125565b610141610193366004610bac565b610341565b6101ab6101a6366004610bac565b610363565b005b6101ab6101bb366004610c12565b6103a4565b6101556101ce366004610c2b565b6001600160a01b031660009081526020819052604090205490565b6101ab6103b1565b6101ab6101ff366004610bac565b6103e7565b6005546040516001600160a01b039091168152602001610125565b6101186103fc565b610141610235366004610bac565b61040b565b610141610248366004610bac565b610486565b61015561025b366004610c4d565b610494565b6101ab61026e366004610c2b565b6104bf565b60606003805461028290610c80565b80601f01602080910402602001604051908101604052809291908181526020018280546102ae90610c80565b80156102fb5780601f106102d0576101008083540402835291602001916102fb565b820191906000526020600020905b8154815290600101906020018083116102de57829003601f168201915b5050505050905090565b600033610313818585610557565b5060019392505050565b60003361032b85828561067c565b6103368585856106f6565b506001949350505050565b6000336103138185856103548383610494565b61035e9190610cd1565b610557565b6005546001600160a01b031633146103965760405162461bcd60e51b815260040161038d90610ce9565b60405180910390fd5b6103a082826108c4565b5050565b6103ae33826109a3565b50565b6005546001600160a01b031633146103db5760405162461bcd60e51b815260040161038d90610ce9565b6103e56000610ae9565b565b6103f282338361067c565b6103a082826109a3565b60606004805461028290610c80565b600033816104198286610494565b9050838110156104795760405162461bcd60e51b815260206004820152602560248201527f45524332303a2064656372656173656420616c6c6f77616e63652062656c6f77604482015264207a65726f60d81b606482015260840161038d565b6103368286868403610557565b6000336103138185856106f6565b6001600160a01b03918216600090815260016020908152604080832093909416825291909152205490565b6005546001600160a01b031633146104e95760405162461bcd60e51b815260040161038d90610ce9565b6001600160a01b03811661054e5760405162461bcd60e51b815260206004820152602660248201527f4f776e61626c653a206e6577206f776e657220697320746865207a65726f206160448201526564647265737360d01b606482015260840161038d565b6103ae81610ae9565b6001600160a01b0383166105b95760405162461bcd60e51b8152602060048201526024808201527f45524332303a20617070726f76652066726f6d20746865207a65726f206164646044820152637265737360e01b606482015260840161038d565b6001600160a01b03821661061a5760405162461bcd60e51b815260206004820152602260248201527f45524332303a20617070726f766520746f20746865207a65726f206164647265604482015261737360f01b606482015260840161038d565b6001600160a01b0383811660008181526001602090815260408083209487168084529482529182902085905590518481527f8c5be1e5ebec7d5bd14f71427d1e84f3dd0314c0f7b2291e5b200ac8c7c3b92591015b60405180910390a3505050565b60006106888484610494565b905060001981146106f057818110156106e35760405162461bcd60e51b815260206004820152601d60248201527f45524332303a20696e73756666696369656e7420616c6c6f77616e6365000000604482015260640161038d565b6106f08484848403610557565b50505050565b6001600160a01b03831661075a5760405162461bcd60e51b815260206004820152602560248201527f45524332303a207472616e736665722066726f6d20746865207a65726f206164604482015264647265737360d81b606482015260840161038d565b6001600160a01b0382166107bc5760405162461bcd60e51b815260206004820152602360248201527f45524332303a207472616e7366657220746f20746865207a65726f206164647260448201526265737360e81b606482015260840161038d565b6001600160a01b038316600090815260208190526040902054818110156108345760405162461bcd60e51b815260206004820152602660248201527f45524332303a207472616e7366657220616d6f756e7420657863656564732062604482015265616c616e636560d01b606482015260840161038d565b6001600160a01b0380851660009081526020819052604080822085850390559185168152908120805484929061086b908490610cd1565b92505081905550826001600160a01b0316846001600160a01b03167fddf252ad1be2c89b69c2b068fc378daa952ba7f163c4a11628f55a4df523b3ef846040516108b791815260200190565b60405180910390a36106f0565b6001600160a01b03821661091a5760405162461bcd60e51b815260206004820152601f60248201527f45524332303a206d696e7420746f20746865207a65726f206164647265737300604482015260640161038d565b806002600082825461092c9190610cd1565b90915550506001600160a01b03821660009081526020819052604081208054839290610959908490610cd1565b90915550506040518181526001600160a01b038316906000907fddf252ad1be2c89b69c2b068fc378daa952ba7f163c4a11628f55a4df523b3ef9060200160405180910390a35050565b6001600160a01b038216610a035760405162461bcd60e51b815260206004820152602160248201527f45524332303a206275726e2066726f6d20746865207a65726f206164647265736044820152607360f81b606482015260840161038d565b6001600160a01b03821660009081526020819052604090205481811015610a775760405162461bcd60e51b815260206004820152602260248201527f45524332303a206275726e20616d6f756e7420657863656564732062616c616e604482015261636560f01b606482015260840161038d565b6001600160a01b0383166000908152602081905260408120838303905560028054849290610aa6908490610d1e565b90915550506040518281526000906001600160a01b038516907fddf252ad1be2c89b69c2b068fc378daa952ba7f163c4a11628f55a4df523b3ef9060200161066f565b600580546001600160a01b038381166001600160a01b0319831681179093556040519116919082907f8be0079c531659141344cd1fd0a4f28419497f9722a3daafe3b4186f6b6457e090600090a35050565b600060208083528351808285015260005b81811015610b6857858101830151858201604001528201610b4c565b81811115610b7a576000604083870101525b50601f01601f1916929092016040019392505050565b80356001600160a01b0381168114610ba757600080fd5b919050565b60008060408385031215610bbf57600080fd5b610bc883610b90565b946020939093013593505050565b600080600060608486031215610beb57600080fd5b610bf484610b90565b9250610c0260208501610b90565b9150604084013590509250925092565b600060208284031215610c2457600080fd5b5035919050565b600060208284031215610c3d57600080fd5b610c4682610b90565b9392505050565b60008060408385031215610c6057600080fd5b610c6983610b90565b9150610c7760208401610b90565b90509250929050565b600181811c90821680610c9457607f821691505b60208210811415610cb557634e487b7160e01b600052602260045260246000fd5b50919050565b634e487b7160e01b600052601160045260246000fd5b60008219821115610ce457610ce4610cbb565b500190565b6020808252818101527f4f776e61626c653a2063616c6c6572206973206e6f7420746865206f776e6572604082015260600190565b600082821015610d3057610d30610cbb565b50039056fea264697066735822122041ea9e7cbed40a7febc414cc0ad7a6073c754be472bba7c4df373a35d83d6efe64736f6c634300080a0033a2646970667358221220a614a741815fdb78c8ed3726ef1414741f1ebf85dd3da2dfd63eb5b578bc6fa164736f6c634300080a0033",
  "devdoc": {
    "kind": "dev",
    "methods": {
      "owner()": {
        "details": "Returns the address of the current owner."
      },
      "renounceOwnership()": {
        "details": "Leaves the contract without owner. It will not be possible to call `onlyOwner` functions anymore. Can only be called by the current owner. NOTE: Renouncing ownership will leave the contract without an owner, thereby removing any functionality that is only available to the owner."
      },
      "transferOwnership(address)": {
        "details": "Transfers ownership of the contract to a new account (`newOwner`). Can only be called by the current owner."
      }
    },
    "version": 1
  },
  "userdoc": {
    "kind": "user",
    "methods": {},
    "version": 1
  },
  "storageLayout": {
    "storage": [
      {
        "astId": 7,
        "contract": "contracts/TokenCreator.sol:TokenCreator",
        "label": "_owner",
        "offset": 0,
        "slot": "0",
        "type": "t_address"
      }
    ],
    "types": {
      "t_address": {
        "encoding": "inplace",
        "label": "address",
        "numberOfBytes": "20"
      }
    }
  }
}